{
  "_format": "hh-sol-artifact-1",
  "contractName": "OurTube",
  "sourceName": "contracts/OurTube.sol",
  "abi": [
    {
      "inputs": [
        {
          "internalType": "string",
          "name": "_greeting",
          "type": "string"
        }
      ],
      "stateMutability": "nonpayable",
      "type": "constructor"
    },
    {
      "anonymous": false,
      "inputs": [
        {
          "indexed": false,
          "internalType": "uint256",
          "name": "id",
          "type": "uint256"
        },
        {
          "indexed": false,
          "internalType": "string",
          "name": "hash",
          "type": "string"
        },
        {
          "indexed": false,
          "internalType": "string",
          "name": "title",
          "type": "string"
        },
        {
          "indexed": false,
          "internalType": "string",
          "name": "description",
          "type": "string"
        },
        {
          "indexed": false,
          "internalType": "string",
          "name": "location",
          "type": "string"
        },
        {
          "indexed": false,
          "internalType": "string",
          "name": "category",
          "type": "string"
        },
        {
          "indexed": false,
          "internalType": "string",
          "name": "thumbnailHash",
          "type": "string"
        },
        {
          "indexed": false,
          "internalType": "bool",
          "name": "isAudio",
          "type": "bool"
        },
        {
          "indexed": false,
          "internalType": "string",
          "name": "date",
          "type": "string"
        },
        {
          "indexed": false,
          "internalType": "address",
          "name": "author",
          "type": "address"
        }
      ],
      "name": "VideoUploaded",
      "type": "event"
    },
    {
      "inputs": [],
      "name": "name",
      "outputs": [
        {
          "internalType": "string",
          "name": "",
          "type": "string"
        }
      ],
      "stateMutability": "view",
      "type": "function"
    },
    {
      "inputs": [
        {
          "internalType": "string",
          "name": "_videoHash",
          "type": "string"
        },
        {
          "internalType": "string",
          "name": "_title",
          "type": "string"
        },
        {
          "internalType": "string",
          "name": "_description",
          "type": "string"
        },
        {
          "internalType": "string",
          "name": "_location",
          "type": "string"
        },
        {
          "internalType": "string",
          "name": "_category",
          "type": "string"
        },
        {
          "internalType": "string",
          "name": "_thumbnailHash",
          "type": "string"
        },
        {
          "internalType": "bool",
          "name": "_isAudio",
          "type": "bool"
        },
        {
          "internalType": "string",
          "name": "_date",
          "type": "string"
        }
      ],
      "name": "uploadVideo",
      "outputs": [],
      "stateMutability": "nonpayable",
      "type": "function"
    },
    {
      "inputs": [],
      "name": "videoCount",
      "outputs": [
        {
          "internalType": "uint256",
          "name": "",
          "type": "uint256"
        }
      ],
      "stateMutability": "view",
      "type": "function"
    },
    {
      "inputs": [
        {
          "internalType": "uint256",
          "name": "",
          "type": "uint256"
        }
      ],
      "name": "videos",
      "outputs": [
        {
          "internalType": "uint256",
          "name": "id",
          "type": "uint256"
        },
        {
          "internalType": "string",
          "name": "hash",
          "type": "string"
        },
        {
          "internalType": "string",
          "name": "title",
          "type": "string"
        },
        {
          "internalType": "string",
          "name": "description",
          "type": "string"
        },
        {
          "internalType": "string",
          "name": "location",
          "type": "string"
        },
        {
          "internalType": "string",
          "name": "category",
          "type": "string"
        },
        {
          "internalType": "string",
          "name": "thumbnailHash",
          "type": "string"
        },
        {
          "internalType": "bool",
          "name": "isAudio",
          "type": "bool"
        },
        {
          "internalType": "string",
          "name": "date",
          "type": "string"
        },
        {
          "internalType": "address",
          "name": "author",
          "type": "address"
        }
      ],
      "stateMutability": "view",
      "type": "function"
    }
  ],
  "bytecode": "0x6080604052600080556040518060400160405280601081526020017f4f75725475626520436f6e7472616374000000000000000000000000000000008152506001908051906020019062000055929190620001ab565b503480156200006357600080fd5b506040516200151e3803806200151e8339818101604052810190620000899190620002cd565b620000d56040518060400160405280601281526020017f4465706c6f79696e67204f7574547562653a000000000000000000000000000081525082620000dc60201b620008261760201c565b506200051a565b6200017e8282604051602401620000f592919062000353565b6040516020818303038152906040527f4b5c4277000000000000000000000000000000000000000000000000000000007bffffffffffffffffffffffffffffffffffffffffffffffffffffffff19166020820180517bffffffffffffffffffffffffffffffffffffffffffffffffffffffff83818316178352505050506200018260201b60201c565b5050565b60008151905060006a636f6e736f6c652e6c6f679050602083016000808483855afa5050505050565b828054620001b9906200043f565b90600052602060002090601f016020900481019282620001dd576000855562000229565b82601f10620001f857805160ff191683800117855562000229565b8280016001018555821562000229579182015b82811115620002285782518255916020019190600101906200020b565b5b5090506200023891906200023c565b5090565b5b80821115620002575760008160009055506001016200023d565b5090565b6000620002726200026c84620003b7565b6200038e565b9050828152602081018484840111156200028b57600080fd5b6200029884828562000409565b509392505050565b600082601f830112620002b257600080fd5b8151620002c48482602086016200025b565b91505092915050565b600060208284031215620002e057600080fd5b600082015167ffffffffffffffff811115620002fb57600080fd5b6200030984828501620002a0565b91505092915050565b60006200031f82620003ed565b6200032b8185620003f8565b93506200033d81856020860162000409565b620003488162000509565b840191505092915050565b600060408201905081810360008301526200036f818562000312565b9050818103602083015262000385818462000312565b90509392505050565b60006200039a620003ad565b9050620003a8828262000475565b919050565b6000604051905090565b600067ffffffffffffffff821115620003d557620003d4620004da565b5b620003e08262000509565b9050602081019050919050565b600081519050919050565b600082825260208201905092915050565b60005b83811015620004295780820151818401526020810190506200040c565b8381111562000439576000848401525b50505050565b600060028204905060018216806200045857607f821691505b602082108114156200046f576200046e620004ab565b5b50919050565b620004808262000509565b810181811067ffffffffffffffff82111715620004a257620004a1620004da565b5b80604052505050565b7f4e487b7100000000000000000000000000000000000000000000000000000000600052602260045260246000fd5b7f4e487b7100000000000000000000000000000000000000000000000000000000600052604160045260246000fd5b6000601f19601f8301169050919050565b610ff4806200052a6000396000f3fe608060405234801561001057600080fd5b506004361061004c5760003560e01c806306fdde0314610051578063b20f24bf1461006f578063c61b5f4c1461008b578063e6821bf5146100a9575b600080fd5b6100596100e2565b6040516100669190610c09565b60405180910390f35b61008960048036038101906100849190610a20565b610170565b005b6100936103e7565b6040516100a09190610c62565b60405180910390f35b6100c360048036038101906100be9190610b7a565b6103ed565b6040516100d99a99989796959493929190610c7d565b60405180910390f35b600180546100ef90610e46565b80601f016020809104026020016040519081016040528092919081815260200182805461011b90610e46565b80156101685780601f1061013d57610100808354040283529160200191610168565b820191906000526020600020905b81548152906001019060200180831161014b57829003601f168201915b505050505081565b600088511161017e57600080fd5b600087511161018c57600080fd5b600073ffffffffffffffffffffffffffffffffffffffff163373ffffffffffffffffffffffffffffffffffffffff1614156101c657600080fd5b6000808154809291906101d890610ea9565b9190505550604051806101400160405280600054815260200189815260200188815260200187815260200186815260200185815260200184815260200183151581526020018281526020013373ffffffffffffffffffffffffffffffffffffffff1681525060026000805481526020019081526020016000206000820151816000015560208201518160010190805190602001906102779291906108eb565b5060408201518160020190805190602001906102949291906108eb565b5060608201518160030190805190602001906102b19291906108eb565b5060808201518160040190805190602001906102ce9291906108eb565b5060a08201518160050190805190602001906102eb9291906108eb565b5060c08201518160060190805190602001906103089291906108eb565b5060e08201518160070160006101000a81548160ff0219169083151502179055506101008201518160080190805190602001906103469291906108eb565b506101208201518160090160006101000a81548173ffffffffffffffffffffffffffffffffffffffff021916908373ffffffffffffffffffffffffffffffffffffffff1602179055509050507f59b01d7253e58066e08807923c0472b8bca64305f2cb0443a998c4c6f7ca8a016000548989898989898989336040516103d59a99989796959493929190610c7d565b60405180910390a15050505050505050565b60005481565b600260205280600052604060002060009150905080600001549080600101805461041690610e46565b80601f016020809104026020016040519081016040528092919081815260200182805461044290610e46565b801561048f5780601f106104645761010080835404028352916020019161048f565b820191906000526020600020905b81548152906001019060200180831161047257829003601f168201915b5050505050908060020180546104a490610e46565b80601f01602080910402602001604051908101604052809291908181526020018280546104d090610e46565b801561051d5780601f106104f25761010080835404028352916020019161051d565b820191906000526020600020905b81548152906001019060200180831161050057829003601f168201915b50505050509080600301805461053290610e46565b80601f016020809104026020016040519081016040528092919081815260200182805461055e90610e46565b80156105ab5780601f10610580576101008083540402835291602001916105ab565b820191906000526020600020905b81548152906001019060200180831161058e57829003601f168201915b5050505050908060040180546105c090610e46565b80601f01602080910402602001604051908101604052809291908181526020018280546105ec90610e46565b80156106395780601f1061060e57610100808354040283529160200191610639565b820191906000526020600020905b81548152906001019060200180831161061c57829003601f168201915b50505050509080600501805461064e90610e46565b80601f016020809104026020016040519081016040528092919081815260200182805461067a90610e46565b80156106c75780601f1061069c576101008083540402835291602001916106c7565b820191906000526020600020905b8154815290600101906020018083116106aa57829003601f168201915b5050505050908060060180546106dc90610e46565b80601f016020809104026020016040519081016040528092919081815260200182805461070890610e46565b80156107555780601f1061072a57610100808354040283529160200191610755565b820191906000526020600020905b81548152906001019060200180831161073857829003601f168201915b5050505050908060070160009054906101000a900460ff169080600801805461077d90610e46565b80601f01602080910402602001604051908101604052809291908181526020018280546107a990610e46565b80156107f65780601f106107cb576101008083540402835291602001916107f6565b820191906000526020600020905b8154815290600101906020018083116107d957829003601f168201915b5050505050908060090160009054906101000a900473ffffffffffffffffffffffffffffffffffffffff1690508a565b6108be828260405160240161083c929190610c2b565b6040516020818303038152906040527f4b5c4277000000000000000000000000000000000000000000000000000000007bffffffffffffffffffffffffffffffffffffffffffffffffffffffff19166020820180517bffffffffffffffffffffffffffffffffffffffffffffffffffffffff83818316178352505050506108c2565b5050565b60008151905060006a636f6e736f6c652e6c6f679050602083016000808483855afa5050505050565b8280546108f790610e46565b90600052602060002090601f0160209004810192826109195760008555610960565b82601f1061093257805160ff1916838001178555610960565b82800160010185558215610960579182015b8281111561095f578251825591602001919060010190610944565b5b50905061096d9190610971565b5090565b5b8082111561098a576000816000905550600101610972565b5090565b60006109a161099c84610d6f565b610d4a565b9050828152602081018484840111156109b957600080fd5b6109c4848285610e04565b509392505050565b6000813590506109db81610f90565b92915050565b600082601f8301126109f257600080fd5b8135610a0284826020860161098e565b91505092915050565b600081359050610a1a81610fa7565b92915050565b600080600080600080600080610100898b031215610a3d57600080fd5b600089013567ffffffffffffffff811115610a5757600080fd5b610a638b828c016109e1565b985050602089013567ffffffffffffffff811115610a8057600080fd5b610a8c8b828c016109e1565b975050604089013567ffffffffffffffff811115610aa957600080fd5b610ab58b828c016109e1565b965050606089013567ffffffffffffffff811115610ad257600080fd5b610ade8b828c016109e1565b955050608089013567ffffffffffffffff811115610afb57600080fd5b610b078b828c016109e1565b94505060a089013567ffffffffffffffff811115610b2457600080fd5b610b308b828c016109e1565b93505060c0610b418b828c016109cc565b92505060e089013567ffffffffffffffff811115610b5e57600080fd5b610b6a8b828c016109e1565b9150509295985092959890939650565b600060208284031215610b8c57600080fd5b6000610b9a84828501610a0b565b91505092915050565b610bac81610dbc565b82525050565b610bbb81610dce565b82525050565b6000610bcc82610da0565b610bd68185610dab565b9350610be6818560208601610e13565b610bef81610f7f565b840191505092915050565b610c0381610dfa565b82525050565b60006020820190508181036000830152610c238184610bc1565b905092915050565b60006040820190508181036000830152610c458185610bc1565b90508181036020830152610c598184610bc1565b90509392505050565b6000602082019050610c776000830184610bfa565b92915050565b600061014082019050610c93600083018d610bfa565b8181036020830152610ca5818c610bc1565b90508181036040830152610cb9818b610bc1565b90508181036060830152610ccd818a610bc1565b90508181036080830152610ce18189610bc1565b905081810360a0830152610cf58188610bc1565b905081810360c0830152610d098187610bc1565b9050610d1860e0830186610bb2565b818103610100830152610d2b8185610bc1565b9050610d3b610120830184610ba3565b9b9a5050505050505050505050565b6000610d54610d65565b9050610d608282610e78565b919050565b6000604051905090565b600067ffffffffffffffff821115610d8a57610d89610f50565b5b610d9382610f7f565b9050602081019050919050565b600081519050919050565b600082825260208201905092915050565b6000610dc782610dda565b9050919050565b60008115159050919050565b600073ffffffffffffffffffffffffffffffffffffffff82169050919050565b6000819050919050565b82818337600083830152505050565b60005b83811015610e31578082015181840152602081019050610e16565b83811115610e40576000848401525b50505050565b60006002820490506001821680610e5e57607f821691505b60208210811415610e7257610e71610f21565b5b50919050565b610e8182610f7f565b810181811067ffffffffffffffff82111715610ea057610e9f610f50565b5b80604052505050565b6000610eb482610dfa565b91507fffffffffffffffffffffffffffffffffffffffffffffffffffffffffffffffff821415610ee757610ee6610ef2565b5b600182019050919050565b7f4e487b7100000000000000000000000000000000000000000000000000000000600052601160045260246000fd5b7f4e487b7100000000000000000000000000000000000000000000000000000000600052602260045260246000fd5b7f4e487b7100000000000000000000000000000000000000000000000000000000600052604160045260246000fd5b6000601f19601f8301169050919050565b610f9981610dce565b8114610fa457600080fd5b50565b610fb081610dfa565b8114610fbb57600080fd5b5056fea264697066735822122034f183d5d3de5ee9e2d88432047389542cf47fdc0a0269586f4d7a2626be9dfb64736f6c63430008040033",
  "linkReferences": {},
  "deployedLinkReferences": {}
}